:0200000460009A
:100000004643464200000156000000000103030081
:1000100000000000000000000000000000000000E0
:1000200000000000000000000000000000000000D0
:1000300000000000000000000000000000000000C0
:1000400000000000010408000000000000000000A3
:100050000000800000000000000000000000000020
:100060000000000000000000000000000000000090
:100070000000000000000000000000000000000080
:10008000EB04180A063204260000000000000000FD
:10009000050404240000000000000000000000002F
:1000A0000000000000000000000000000000000050
:1000B0000604000000000000000000000000000036
:1000C0000000000000000000000000000000000030
:1000D00020041808000000000000000000000000DC
:1000E0000000000000000000000000000000000010
:1000F0000000000000000000000000000000000000
:10010000D8041808000000000000000000000000F3
:100110000204180804200000000000000000000095
:1001200000000000000000000000000000000000CF
:10013000600400000000000000000000000000005B
:1001400000000000000000000000000000000000AF
:10015000000000000000000000000000000000009F
:10016000000000000000000000000000000000008F
:10017000000000000000000000000000000000007F
:10018000000000000000000000000000000000006F
:10019000000000000000000000000000000000005F
:1001A000000000000000000000000000000000004F
:1001B000000000000000000000000000000000003F
:1001C000000100000010000001000000000000001D
:1001D000000001000000000000000000000000001E
:1001E000000000000000000000000000000000000F
:1001F00000000000000000000000000000000000FF
:10020000FFFFFFFFFFFFFFFFFFFFFFFFFFFFFFFFFE
:10021000FFFFFFFFFFFFFFFFFFFFFFFFFFFFFFFFEE
:10100000D10020434D1600600000000000000000E9
:1010100020100060001000600090006000000000E0
:1010200000000060009C000000000000FFFFFFFFC8
:10103000FFFFFFFFFFFFFFFFFFFFFFFFFFFFFFFFC0
:10104000FFFFFFFFFFFFFFFFFFFFFFFFFFFFFFFFB0
:10105000FFFFFFFFFFFFFFFFFFFFFFFFFFFFFFFFA0
:10106000FFFFFFFFFFFFFFFFFFFFFFFFFFFFFFFF90
:10140000814205D051F8043B40F8043B8242F9D8B0
:10141000704700BF044A05494FF0000342F8043BFF
:101420009142FBD8704700BFC0120020401B002033
:101430002DE98848BFF34F8F00BF00BF00BF00BF3A
:1014400000F018F9684B0822C3F8542100BF00BF10
:1014500000BF00BF00BF00BF00BF00BF00BF00BF94
:1014600000BF00BF00BF00BF00BF00BF5F4A6049B0
:101470006048FFF7C5FF604A60496148FFF7C0FF59
:10148000604CFFF7C7FF4FF470004FF0E0210023DE
:101490005D4AC1F8880D44F823200133B02BFAD1FE
:1014A0005A4B80215A4A03F8011B9342FBD14FF05B
:1014B000E0254D4E4FF08039DFF884B1DFF884A18C
:1014C0004FF0FF31C5F8084D0027C6F80491C6F863
:1014D00000B1C6F8F490C6F8F0A0D5F8243DDFF8C6
:1014E000688143F4E0234B4AC5F8243DD8F81C300A
:1014F00023F07F0343F04003C8F81C30D8F82430B1
:1015000023F07F0343F04003C8F824309166D1668E
:101510001167516700F0B6F83F4B4049A363404B59
:10152000E36363236B610323AF612B613D4BC5F81C
:10153000203DD5F8FC3D43F08073C5F8FC3D3A4BA7
:101540001A6842F001021A605B680B6000F0E4FA6E
:10155000C6F804913548C6F800B1C6F8F490C6F84C
:10156000F0A000F06DFCD8F86C10314B314A41F41A
:101570004051C8F86C101F60C3F80871C3F81871A7
:10158000C3F82871C3F83871936BDB0708D442F6AF
:101590001563294951651365936B43F00103936308
:1015A000244A264C936843F00113936000F0F2F84C
:1015B00000F016FC00F060FC00F0DCFA00F05CF8D3
:1015C0002368132BFCD900F06DFB2368B3F5967FDD
:1015D000FBD300F055F800F051F800F045FC00F0A6
:1015E0003BFC30BFFDE700BF00800D40405B0000CA
:1015F000901F006000000000C0120020D47A00603C
:1016000000000020001000205145000000E400E030
:10161000A0E400E000C00A4015590000CC1A0020E8
:101620001959000000002020001000E00046C323EC
:101630000040084000400D400000C056D01A002075
:101640001B1018200C0D111300C00F40054B4FF458
:101650002A01054A05485A641864054A9963954663
:10166000FFF7E6FE00C00A40ABAAAAAA07002000C6
:1016700000800720704700BF704700BF704700BF61
:1016800000BF704710B44FF0E02300211024314810
:10169000C3F8941DC3F89C4D1124C3F8A00D2E4827
:1016A000C3F89C4D1224C3F8A00D2C48C3F89C4DE0
:1016B0002B4AC3F8A00D2B4C42F015022A48C3F860
:1016C0009C4DC3F8A00D294C2948C3F89C4DC3F884
:1016D000A00D284CC3F89C2D2748284AC3F8A04DDC
:1016E000C3F89C0DC3F8A02D02F5A022244C0C32A7
:1016F0002448C3F89C4DC3F8A02D234AC3F89C0D81
:10170000224CC3F8A02D02F14062C3F89C4D204842
:10171000C3F8A02D0C32C3F89C0DC3F8A02D00BF58
:1017200000BF00BF00BF00BF0122C3F8942DBFF36C
:101730004F8FBFF36F8FC3F8501FBFF34F8FBFF3AF
:101740006F8FD3F8142D5DF8044B42F44032C3F888
:10175000142D70473F0000102500080709001000F5
:10176000401B00201300200021000207140000206D
:1017700025000813090000101600202027000B1375
:1017800017000040180000602F000B0719000070C0
:101790001A000080F0B5B84B1822B84E0120B84F9F
:1017A00083B0C3F85C62B749C3F86072B64DC3F842
:1017B0006462A6F53046B54CC3F86862C3F86C5253
:1017C000C3F87052C3F87452C3F8785248F20C75DB
:1017D000DA661A675A679A67DA67C3F88020C3F82F
:1017E0008420C3F88820C1F82C03A94AC1F830032B
:1017F000C1F83403C1F83803C1F83C03C1F8500301
:10180000A169A44B0A40A448A4491343A44AA36174
:10181000D4F8843043F00C03C4F884304FF0FF3424
:10182000036843F00203036003682B404FF4005544
:101830001A439C4B026044608A689B4C13409B4A4D
:1018400043F000538360C36823F07803C360036AE6
:10185000134023430362036A1340954A2343954C84
:1018600043628262C2620022D1F8B83023F03F03A3
:1018700043F00103C0F8B830D1F8BC308E4923F0F2
:101880003F0343F00103C0F8BC3040F2056302613E
:1018900005660467C0F88030456644670224C0F8D6
:1018A0008430036823F0020303608161834B844921
:1018B000C46143F8042B8B42FBD1774A136843F091
:1018C00001031360136813F00103FBD17A4802216E
:1018D00040F2F564906140F29940D16140F2664176
:1018E000C2F8004242F20144C2F810127549C2F82F
:1018F0002002C2F8301240F235417348C2F8344237
:10190000C2F84012714CC2F8500242F201207049F4
:10191000C2F854120121C2F86042C2F864025E4863
:10192000C2F8A030C2F8A430C2F8B0104369DA0798
:10193000FCD5012300244FF4803257494361C0F89D
:10194000A040C0F8A420C0F8B0304B69DB07FCD53C
:10195000012300244FF400304F4A4B61C1F8A040EE
:10196000C1F8A400C1F8B0305369DF07FCD50123EA
:101970000024584848495361C2F8A040C2F8A40066
:10198000C2F8B0304B69DE07FCD5D1F8003145F61E
:101990000D5221209BB24861934265D100244FF43F
:1019A000802201233C48C1F8A040C1F8A420C1F81E
:1019B000B0304369DD07FCD501234FF4000400215A
:1019C000354A4361C0F8A040C0F8A410C0F8B03058
:1019D0005369DC07FCD501234FF400044FF4803039
:1019E0002D495361C2F8A040C2F8A400C2F8B0303B
:1019F0004B69D807FCD501234FF400044FF40030A5
:101A0000254A4B61C1F8A040C1F8A400C1F8B0302C
:101A10005369D907FCD501234FF400042D481E4912
:101A20005361C2F8A040C2F8A400C2F8B0304B69BC
:101A3000DA07FCD5D1F8003145F60D5221209BB2D2
:101A40004861934250D008254FF4000422490020F9
:101A5000224B234A009015705A1A01232148224430
:101A600000F0FEF903B0F0BD1E4B0022C3E90022D6
:101A7000C3E9022203B0F0BD00801F40F9B00100AD
:101A8000F910010000841F40F970010000C00F40F0
:101A9000FFFCFF1F000300A000402A4000802A40F6
:101AA0001200FFFFFF37F7004000008000FFF07CCE
:101AB000FF000F8363000200F05AF05A00422A40F0
:101AC00000432A409F041830EB06180A3806180A0B
:101AD00006320126040003000000007000000070C0
:101AE000F61A0020E01900204FF400044FF4802281
:101AF00001230848C1F8A040C1F8A420C1F8B030C3
:101B00004369DB07FCD5012310254FF08074436146
:101B10009CE700BF00402A40F0B4154A40274FF42C
:101B200080314FF480564FF400554FF4404443F257
:101B30004200136913F0020F0ED113F4005F0FD0AF
:101B400013F4805F0ED0002BF3DA13F4803F0BD137
:101B50005B060BD5F0BC7047946151619061E8E77A
:101B60005561E6E75661E4E79161E2E75761E0E736
:101B700000800D403F4A03203F49F3EE095AD2F856
:101B800080304FF0000C9FED3D6A23F001039FED84
:101B90003C5A30B4C2F88030C2F89000D1F8E0105E
:101BA000384DCBB2384C39482B6007EE903A0B0DCC
:101BB000C1F30B21F8EEE77A06EE903A07EE101A21
:101BC000334BB8EEC77A2160F8EEE66A314937EE5A
:101BD000C66A37EEC55A76EEC76A77EEE57A26EE24
:101BE000266AC3ED006A25EE265AD2F8803067EEE9
:101BF000A64AC0ED007AC6EE275A274885EE276A26
:101C0000C4EEA76A75EE875AFCEEE55A36EE076A0F
:101C100015EE904ABCEEC66A43EA045376EE877A24
:101C2000C2F8803016EE103AD2F89041FCEEE77A16
:101C300001EA0341214317EE903AC2F89011C3F331
:101C40000B03D2F890110B431449C2F89031D2F82B
:101C5000803043F00203C2F88030114B80F840C05E
:101C6000C1F840314FF0E023012230BCC3F8082115
:101C7000704700BF00810D4000441F400000AA4291
:101C80000000B442BC1A0020B81A0020C01A00207C
:101C9000C41A00200000FF0F00E400E00010002044
:101CA000DD460000314B40F6617210B5C3F82021CB
:101CB00040F2044400F0CCF82D4A2E49D2F880308E
:101CC0002D4843F00303C2F880302C4BC1F860412B
:101CD00002681A4203D1D1F8A8319A071BD0254ACD
:101CE0004FF00041244B5963D2F8403143F00203D6
:101CF000C2F84031D2F840319B07FBD44FF400309A
:101D00004FF0E0211C4B4FF00042C1F88C0219202B
:101D10009A6300F099F8184A4FF08040154C002162
:101D200090630A20164B11604FF42072C4F8A8018A
:101D3000184600F09DF84FF4800203464FF48100EE
:101D400040F243111860C4F858311A640D4B0E4A22
:101D5000C4F84811C3F804224FF0E0224FF40031D8
:101D60000123C2F80C11C4F8403110BD00800D40B1
:101D700000C00F4000002E4000900D40001C1E00CF
:101D80000000002000100020C548000008B50E4BE0
:101D90001B6E9B0700D4FBBE72B60C4B00200C4A96
:101DA000C3F8400103F160430A49A3F55F231164BE
:101DB0009D46BFF34F8F4FF400130748074ADB6976
:101DC00002609B68984700BF00441F4000002E40FF
:101DD00000C00A400300200000802020000012EB19
:101DE000104BA020104AD96E41F4403110B4D9668E
:101DF00040F23764D96E41F44071D96654649064FE
:101E0000936C1B06FCD4094A40F23761A02351644D
:101E10009364936C13F08003FBD1054A13705DF853
:101E2000044B704700C00F4000400C4000800C4045
:101E3000F51A0020F8B500BFF8BC08BC9E467047F4
:101E40005FF800F0613900005FF800F0513C0000DD
:101E50005FF800F0355000005FF800F0C53E00006C
:101E60005FF800F0A95900005FF800F0DD5A0000AB
:101E70005FF800F02D5A00005FF800F041440000C8
:081E800005010000E933000038
:101E880016035500530042002000530065007200FD
:101E9800690061006C0000001803540065006500CB
:101EA8006E00730079006400750069006E006F00B1
:101EB8000403090409026200030100C032080B0090
:101EC80002020201000904000001020201000524C7
:101ED800001001052401010104240206052406005E
:101EE800010705820310001009040100020A00001E
:101EF80000070503024000000705840240000009AE
:101F080004020002FF6AFF00070581024000010782
:101F1800050102400001000009026200030100C03F
:101F280032080B000202020100090400000102024B
:101F38000100052400100105240101010424020602
:101F480005240600010705820310000509040100A5
:101F5800020A0000000705030200020007058402C8
:101F68000002000904020002FF6AC7000705810297
:101F78000002010705010200020100000A06000232
:081F8800EF020140010000001E
:101F90000000000000000000000000000000000041
:101FA0000000000000000000000000000000000031
:101FB000F8B54FF084439D695A6915400DD0254FFF
:101FC00001269D6195FAA5F4B4FA84F457F82430FB
:101FD00006FA04F49847A543F4D11F4B9D695A694A
:101FE00015400DD01D4F01269D6195FAA5F4B4FA58
:101FF00084F457F8243006FA04F49847A543F4D142
:10200000174B9D695A6915400DD0164F01269D61E9
:1020100095FAA5F4B4FA84F457F8243006FA04F4D7
:102020009847A543F4D1104B9D695A6915400DD0CE
:102030000E4F01269D6195FAA5F4B4FA84F457F881
:10204000243006FA04F49847A543F4D1BFF34F8F28
:10205000F8BD00BF500C002000400042D00C002012
:1020600000800042500D002000C00042D00D002032
:102070000548064B1B1AD90F01EBA301491002D0EA
:10208000034B03B118477047C0120020C012002054
:102090000000000008B5054B1BB105490548AFF32A
:1020A0000080BDE80840FFF7E3BF00BF000000006C
:1020B000681A0020009C00600161FF21C0E9002334
:1020C0000023C0E90213704710B5044601210078CF
:1020D00003F004FE2079012103F000FE20780021A6
:1020E00004F09AF820790021BDE8104003F0CCBD3F
:1020F00007EE901A007808B5B8EEE70A04F0F2F897
:102100000820BDE8084004F0DDB900BFB5EEC00B03
:1021100010B5F1EE10FA04460079ACBF01210021A0
:102120002DED028BB0EE408B03F0AEFDE16807EEC3
:10213000901AB0EEC88BB8EEE77BB4EEC87BF1EE38
:1021400010FA09DCA16807EE901AB8EEE77BB4EE4E
:10215000C87BF1EE10FA06D52078BDEC028BBDE805
:10216000104004F059B8FDEEC87B2078BDEC028B1E
:1021700017EE901ABDE8104004F04EB80021007828
:1021800004F04AB8000000009FED0D7B002241647E
:1021900080ED067B80ED087B80ED0A7B9FED0A7B5E
:1021A00080ED000B026480ED0C7B9FED097B80EDE0
:1021B000021B80ED042B80ED0E7B7047AFF3008097
:1021C00000000000000000000000000000E06FC000
:1021D0000000000000E06F4080ED0C0B80ED0E1B56
:1021E000704700BF000000002B4B416C1A68036C65
:1021F000D31A8B4202D290ED0A0B704707EE903A49
:1022000030EE411B0264B8EE677B9FED213B2DED64
:10221000028B90ED084B87EE038B31EE444B90ED33
:10222000065B90ED026B90ED007B90ED043B90ED32
:102230000E0B84EE082B28EE018B38EE055B25EEA5
:10224000066B80ED065BA7EE016BA3EE026BB4EEAE
:10225000C06B80ED0A6BF1EE10FA0ADD35EE485BDB
:10226000BDEC028B80ED0A0B80ED065B80ED081B58
:10227000704790ED0C0BB4EEC06BF1EE10FAEDD49C
:10228000B0EE460BBDEC028B80ED081B704700BF23
:102290000000000000408F40D01A002000220023E0
:1022A000C0E90623C0E90823C0E90A23704700BF3C
:1022B00010B570220021044605F080FB0023204663
:1022C0002367A367C4F880306367E367C4F884308A
:1022D0009FED057B84ED227B84ED267B84ED247BC2
:1022E00084ED287B10BD00BF00000000000000004E
:1022F000032908D800EB810C40F82120CCF81030DD
:10230000009BCCF820307047012906D800EB8101F2
:102310008B67009B0A67C1F88030704710B5034691
:102320000E4C10210E482DED028BB0EE408B83ED4C
:102330000C0B83ED0E0B83ED100B83ED120B05F0F0
:10234000A5F9B0EE480B2046022103F035F92046EE
:10235000BDEC028BBDE8104003F020B9280C002032
:10236000C0020020B1EE407B034611210E4810B59B
:102370002DED028BB0EE408B0C4C83ED0C7B83ED8E
:102380000E7B83ED107B83ED127B05F07FF9B0EEC1
:10239000480B2046022103F00FF92046BDEC028BCA
:1023A000BDE8104003F0FAB870030020280C0020AC
:1023B000B1EE407B03460E210E4810B52DED028B89
:1023C000B0EE408B0C4C83ED0E0B83ED120B83EDC6
:1023D0000C7B83ED107B05F059F9B0EE480B2046DD
:1023E000022103F0E9F82046BDEC028BBDE8104065
:1023F00003F0D4B8C0030020280C0020B1EE407BCD
:1024000003460F210E4810B52DED028BB0EE408B28
:102410000C4C83ED0C0B83ED100B83ED0E7B83EDE9
:10242000127B05F033F9B0EE480B2046022103F091
:10243000C3F82046BDEC028BBDE8104003F0AEB8F7
:10244000EC030020280C002070B500F10C0500F111
:10245000300400F11C0655F8040F08B1FFF78EFE9A
:10246000B542D4E90823E4E80223F4D10D2104485D
:1024700005F00CF90348BDE8704003F08FB800BFC9
:10248000DC030020280C002010B503460B4C09216A
:102490000B482DED028BB0EE408B83ED220B05F047
:1024A000F5F8B0EE480B2046022103F085F82046EF
:1024B000BDEC028BBDE8104003F070B8280C002082
:1024C0008403002010B503460B4C0B210B482DED67
:1024D000028BB0EE408B83ED240B05F0D7F8B0EE05
:1024E000480B2046022103F067F82046BDEC028B22
:1024F000BDE8104003F052B8280C002090030020E3
:1025000010B50446806F08B1FFF738FEE06FD4E9DC
:102510002623C4E9222308B1FFF730FE0C21064828
:10252000D4E92823C4E9242305F0B0F80348BDE822
:10253000104003F033B800BFB0030020280C002087
:1025400038B504461A4D10211A482DED048BB0EE13
:10255000408BB0EE419B84ED0C0B84ED0E0B84EDB3
:10256000100B84ED120B05F091F8B0EE480B022130
:10257000284603F021F8284603F010F809210E48F8
:1025800084ED229B05F082F8B0EE490B022128462B
:1025900003F012F8284603F001F81C21074805F063
:1025A00075F82846BDEC048BBDE8384002F0F6BF54
:1025B000280C0020C002002084030020A00200207C
:1025C00070B5044600F1300500F11006236ACBB166
:1025D0002268BAB12269AAB11A7E012A17D972B645
:1025E0005A6962B607EE902A2068B8EEE77B95ED4F
:1025F000000BB0EE471B85ED087BFFF7F5FD20696A
:10260000FFF784FD04340835B442DFD170BD72B6E3
:1026100059681A681268086899681140DA681042A7
:1026200008D01A7C02F0030209B142F0040242F021
:10263000080205E01A7C02F0030209B142F004022C
:102640009108013A19740D2ACAD801A151F822F053
:1026500001070000F906000011070000F90600005C
:1026600051060000090700000107000001070000F3
:102670000907000051060000F906000011070000DC
:10268000F9060000010700005A69013A5A61A8E7FB
:102690005A6901325A61A4E75A69023A5A61A0E7BD
:1026A0005A6902325A619CE770B500F1700400F17A
:1026B000880600F178052369CBB12268BAB1A26817
:1026C000AAB11A7E012A17D972B65A6962B607EE04
:1026D000902A2068B8EEE77B96ED000BB0EE471B22
:1026E00086ED047BFFF780FDA068FFF70FFD043443
:1026F0000836AC42DFD170BD72B61A6811685A68EC
:1027000010689A681140DA6810422BD01A7C02F0E7
:102710000302002936D142F008029108013A1974E7
:102720000D2AD2D801A151F822F000BFED07000018
:10273000E507000003080000E50700003B07000074
:10274000FB070000ED070000ED070000FB0700009D
:102750003B070000E507000003080000E507000054
:10276000ED0700001A7C02F003020029D5D042F0E8
:102770000402D2E75A69013A5A61A7E75A6901325D
:102780005A61A3E742F00402C5E75A69023A5A6166
:102790009CE75A6902325A6198E700BF10B50446B7
:1027A000FFF70EFF2046BDE81040FFF77DBF00BFDA
:1027B0002DE9F84300274FF000084FF00009041FEF
:1027C00000F1300600F10C05636A13B172B65F6167
:1027D00062B654F8040F08B1FFF760FDA542E6E8C1
:1027E0000289F1D10B21044804F050FF0348BDE8F1
:1027F000F84302F0D3BE00BF94020020280C002052
:10280000D0F8803010B504461BB172B600225A6170
:1028100062B6206F08B1FFF741FD00200021D4F817
:102820008430C4E922011BB172B600225A6162B63B
:10283000606F08B1FFF732FD002200230A2105482E
:10284000C4E9242304F022FF0348BDE8104002F04D
:10285000A5BE00BFD0030020280C002010B5044600
:10286000FFF7A6FF2046FFF7CBFF1121034804F036
:102870000DFF0348BDE8104002F090BE9C0300200D
:10288000280C00202DE9F8432221804641480025EC
:1028900004F0FCFE404802F081FEDFF820910D219B
:1028A0003E4808F1300708F150063B4C04F0EEFEBC
:1028B000394802F073FE01350321484604F0E6FE74
:1028C0002946204602F05EFE0421354804F0DEFE73
:1028D0000021204697ED000B02F06EFE05213148E5
:1028E00004F0D4FE0021204696ED000B02F064FEB9
:1028F00005212D4804F0CAFE00212046B6EC027BDB
:10290000B7EC020B30EE470B02F056FE204602F009
:1029100045FE042DCFD10C21244804F0B7FE1E48FB
:1029200002F03CFE0A21224804F0B0FE00211A48C1
:1029300098ED220B02F040FE05211A4804F0A6FE95
:102940000021154898ED260B02F036FE124802F0E1
:1029500025FE0A21174804F099FE00210E4898ED43
:10296000240B02F029FE05210E4804F08FFE002101
:10297000094898ED280B02F01FFE074802F00EFEF2
:1029800022210D4804F082FE0348BDE8F84302F01E
:1029900005BE00BFD4020020280C0020F802002051
:1029A0000C030020140300201C030020240300203B
:1029B00034030020400300204C03002008030020C3
:1029C000224BD3F8B420D2E90010D368096800681C
:1029D00010B41842946801EA04012ED0137C03F06D
:1029E0000303D9B943F008039908013B11740D2B77
:1029F0000BD8DFE803F00D071C070A160D0D160AA9
:102A0000071C070D5369013B53615DF8044B704788
:102A100053695DF8044B01335361704743F004037D
:102A2000E0E753695DF8044B023B5361704753691B
:102A30005DF8044B023353617047137C03F00303CA
:102A40000029D1D043F00403CEE700BF10170020C7
:102A500008B52DED028B04F0F3FDC0B262381628E4
:102A60000DD8DFE800F00F0C1D0C2B0C0C0C0C0C1F
:102A700039470C0C0C0C606E0C7E0C0C8C00BDEC01
:102A8000028B08BD50480122002102F09DFE4F48F4
:102A9000B7EEC00ABDEC028BBDE80840FFF762BC90
:102AA00049480122002102F08FFE4848B7EEC00AD3
:102AB000BDEC028BBDE80840FFF704BD424801228F
:102AC000002102F081FE4148B7EEC00ABDEC028B46
:102AD000BDE80840FFF722BC3B480122002102F07C
:102AE00073FE3A48B7EEC00ABDEC028BBDE8084061
:102AF000FFF75EBC01220021334802F065FEB0EE14
:102B0000408A31480122002102F05EFEB0EE401AF8
:102B1000B7EEC80A2D48BDEC028BB7EEC11ABDE86E
:102B20000840FFF70DBD28480122002102F04CFEAD
:102B30002648B7EEC00ABDEC028BBDE80840FFF79F
:102B40005DBC04F017FDC0B264282BD0702832D0D1
:102B500061281BD01D48BDEC028BBDE80840FFF783
:102B600091BE19480122002102F02EFE1748B7EE4F
:102B7000C00ABDEC028BBDE80840FFF785BCBDEC88
:102B8000028B1248BDE80840FFF768BE04F058FD0C
:102B90000E48FFF759FC0D48BDEC028BBDE808401C
:102BA000FFF7AEBC04F04CFD0848BDEC028BBDE85D
:102BB0000840FFF749BC04F043FD0448BDEC028B1C
:102BC000BDE80840FFF79CBC280C00203816002008
:102BD000224BD3F8D820D2E90010D36809680068E6
:102BE00010B41842946801EA04012ED0137C03F05B
:102BF0000303D9B943F008039908013B11740D2B65
:102C00000BD8DFE803F00D071C070A160D0D160A96
:102C1000071C070D5369013B53615DF8044B704776
:102C200053695DF8044B01335361704743F004036B
:102C3000E0E753695DF8044B023B53617047536909
:102C40005DF8044B023353617047137C03F00303B8
:102C50000029D1D043F00403CEE700BF10170020B5
:102C6000214B1A68D2E90010D3680968006810B4D3
:102C70001842946801EA04012ED0137C03F0030388
:102C8000D9B943F008039908013B11740D2B0BD8F7
:102C9000DFE803F00D071C070A160D0D160A071CC6
:102CA000070D5369013B53615DF8044B704753694D
:102CB0005DF8044B01335361704743F00403E0E7D0
:102CC00053695DF8044B023B5361704753695DF8EB
:102CD000044B023353617047137C03F00303002954
:102CE000D1D043F00403CEE710170020214B5A68DF
:102CF000D2E90010D3680968006810B418429468DB
:102D000001EA04012ED0137C03F00303D9B943F088
:102D100008039908013B11740D2B0BD8DFE803F071
:102D20000D071C070A160D0D160A071C070D53691F
:102D3000013B53615DF8044B704753695DF8044BE8
:102D400001335361704743F00403E0E753695DF8D2
:102D5000044B023B5361704753695DF8044B0233E7
:102D600053617047137C03F003030029D1D043F073
:102D70000403CEE710170020214B9A68D2E9001017
:102D8000D3680968006810B41842946801EA040125
:102D90002ED0137C03F00303D9B943F0080399083C
:102DA000013B11740D2B0BD8DFE803F00D071C0756
:102DB0000A160D0D160A071C070D5369013B5361D6
:102DC0005DF8044B704753695DF8044B0133536160
:102DD000704743F00403E0E753695DF8044B023B9E
:102DE0005361704753695DF8044B02335361704778
:102DF000137C03F003030029D1D043F00403CEE792
:102E000010170020214BDA68D2E90010D368096856
:102E1000006810B41842946801EA04012ED0137CB3
:102E200003F00303D9B943F008039908013B117477
:102E30000D2B0BD8DFE803F00D071C070A160D0D4C
:102E4000160A071C070D5369013B53615DF8044BDB
:102E5000704753695DF8044B01335361704743F089
:102E60000403E0E753695DF8044B023B536170478C
:102E700053695DF8044B023353617047137C03F0D0
:102E800003030029D1D043F00403CEE7101700203C
:102E9000214B1A69D2E90010D3680968006810B4A0
:102EA0001842946801EA04012ED0137C03F0030356
:102EB000D9B943F008039908013B11740D2B0BD8C5
:102EC000DFE803F00D071C070A160D0D160A071C94
:102ED000070D5369013B53615DF8044B704753691B
:102EE0005DF8044B01335361704743F00403E0E79E
:102EF00053695DF8044B023B5361704753695DF8B9
:102F0000044B023353617047137C03F00303002921
:102F1000D1D043F00403CEE710170020214B5A69AB
:102F2000D2E90010D3680968006810B418429468A8
:102F300001EA04012ED0137C03F00303D9B943F056
:102F400008039908013B11740D2B0BD8DFE803F03F
:102F50000D071C070A160D0D160A071C070D5369ED
:102F6000013B53615DF8044B704753695DF8044BB6
:102F700001335361704743F00403E0E753695DF8A0
:102F8000044B023B5361704753695DF8044B0233B5
:102F900053617047137C03F003030029D1D043F041
:102FA0000403CEE710170020214B9A69D2E90010E4
:102FB000D3680968006810B41842946801EA0401F3
:102FC0002ED0137C03F00303D9B943F0080399080A
:102FD000013B11740D2B0BD8DFE803F00D071C0724
:102FE0000A160D0D160A071C070D5369013B5361A4
:102FF0005DF8044B704753695DF8044B013353612E
:10300000704743F00403E0E753695DF8044B023B6B
:103010005361704753695DF8044B02335361704745
:10302000137C03F003030029D1D043F00403CEE75F
:1030300010170020214BDA69D2E90010D368096823
:10304000006810B41842946801EA04012ED0137C81
:1030500003F00303D9B943F008039908013B117445
:103060000D2B0BD8DFE803F00D071C070A160D0D1A
:10307000160A071C070D5369013B53615DF8044BA9
:10308000704753695DF8044B01335361704743F057
:103090000403E0E753695DF8044B023B536170475A
:1030A00053695DF8044B023353617047137C03F09E
:1030B00003030029D1D043F00403CEE7101700200A
:1030C000214B1A6AD2E90010D3680968006810B46D
:1030D0001842946801EA04012ED0137C03F0030324
:1030E000D9B943F008039908013B11740D2B0BD893
:1030F000DFE803F00D071C070A160D0D160A071C62
:10310000070D5369013B53615DF8044B70475369E8
:103110005DF8044B01335361704743F00403E0E76B
:1031200053695DF8044B023B5361704753695DF886
:10313000044B023353617047137C03F003030029EF
:10314000D1D043F00403CEE710170020214B5A6A78
:10315000D2E90010D3680968006810B41842946876
:1031600001EA04012ED0137C03F00303D9B943F024
:1031700008039908013B11740D2B0BD8DFE803F00D
:103180000D071C070A160D0D160A071C070D5369BB
:10319000013B53615DF8044B704753695DF8044B84
:1031A00001335361704743F00403E0E753695DF86E
:1031B000044B023B5361704753695DF8044B023383
:1031C00053617047137C03F003030029D1D043F00F
:1031D0000403CEE710170020214B9A6AD2E90010B1
:1031E000D3680968006810B41842946801EA0401C1
:1031F0002ED0137C03F00303D9B943F008039908D8
:10320000013B11740D2B0BD8DFE803F00D071C07F1
:103210000A160D0D160A071C070D5369013B536171
:103220005DF8044B704753695DF8044B01335361FB
:10323000704743F00403E0E753695DF8044B023B39
:103240005361704753695DF8044B02335361704713
:10325000137C03F003030029D1D043F00403CEE72D
:1032600010170020214BDA6AD2E90010D3680968F0
:10327000006810B41842946801EA04012ED0137C4F
:1032800003F00303D9B943F008039908013B117413
:103290000D2B0BD8DFE803F00D071C070A160D0DE8
:1032A000160A071C070D5369013B53615DF8044B77
:1032B000704753695DF8044B01335361704743F025
:1032C0000403E0E753695DF8044B023B5361704728
:1032D00053695DF8044B023353617047137C03F06C
:1032E00003030029D1D043F00403CEE710170020D8
:1032F000214B1A6BD2E90010D3680968006810B43A
:103300001842946801EA04012ED0137C03F00303F1
:10331000D9B943F008039908013B11740D2B0BD860
:10332000DFE803F00D071C070A160D0D160A071C2F
:10333000070D5369013B53615DF8044B70475369B6
:103340005DF8044B01335361704743F00403E0E739
:1033500053695DF8044B023B5361704753695DF854
:10336000044B023353617047137C03F003030029BD
:10337000D1D043F00403CEE710170020214B5A6B45
:10338000D2E90010D3680968006810B41842946844
:1033900001EA04012ED0137C03F00303D9B943F0F2
:1033A00008039908013B11740D2B0BD8DFE803F0DB
:1033B0000D071C070A160D0D160A071C070D536989
:1033C000013B53615DF8044B704753695DF8044B52
:1033D00001335361704743F00403E0E753695DF83C
:1033E000044B023B5361704753695DF8044B023351
:1033F00053617047137C03F003030029D1D043F0DD
:103400000403CEE710170020224BD3F8B820D2E9EE
:103410000010D3680968006810B41842946801EA83
:1034200004012ED0137C03F00303D9B943F0080341
:103430009908013B11740D2B0BD8DFE803F00D0741
:103440001C070A160D0D160A071C070D5369013BD0
:1034500053615DF8044B704753695DF8044B0133C9
:103460005361704743F00403E0E753695DF8044B90
:10347000023B5361704753695DF8044B023353615B
:103480007047137C03F003030029D1D043F00403F9
:10349000CEE700BF10170020224BD3F8BC20D2E9A2
:1034A0000010D3680968006810B41842946801EAF3
:1034B00004012ED0137C03F00303D9B943F00803B1
:1034C0009908013B11740D2B0BD8DFE803F00D07B1
:1034D0001C070A160D0D160A071C070D5369013B40
:1034E00053615DF8044B704753695DF8044B013339
:1034F0005361704743F00403E0E753695DF8044B00
:10350000023B5361704753695DF8044B02335361CA
:103510007047137C03F003030029D1D043F0040368
:10352000CEE700BF10170020224BD3F8C020D2E90D
:103530000010D3680968006810B41842946801EA62
:1035400004012ED0137C03F00303D9B943F0080320
:103550009908013B11740D2B0BD8DFE803F00D0720
:103560001C070A160D0D160A071C070D5369013BAF
:1035700053615DF8044B704753695DF8044B0133A8
:103580005361704743F00403E0E753695DF8044B6F
:10359000023B5361704753695DF8044B023353613A
:1035A0007047137C03F003030029D1D043F00403D8
:1035B000CEE700BF10170020224BD3F8C420D2E979
:1035C0000010D3680968006810B41842946801EAD2
:1035D00004012ED0137C03F00303D9B943F0080390
:1035E0009908013B11740D2B0BD8DFE803F00D0790
:1035F0001C070A160D0D160A071C070D5369013B1F
:1036000053615DF8044B704753695DF8044B013317
:103610005361704743F00403E0E753695DF8044BDE
:10362000023B5361704753695DF8044B02335361A9
:103630007047137C03F003030029D1D043F0040347
:10364000CEE700BF10170020224BD3F8C820D2E9E4
:103650000010D3680968006810B41842946801EA41
:1036600004012ED0137C03F00303D9B943F00803FF
:103670009908013B11740D2B0BD8DFE803F00D07FF
:103680001C070A160D0D160A071C070D5369013B8E
:1036900053615DF8044B704753695DF8044B013387
:1036A0005361704743F00403E0E753695DF8044B4E
:1036B000023B5361704753695DF8044B0233536119
:1036C0007047137C03F003030029D1D043F00403B7
:1036D000CEE700BF10170020224BD3F8CC20D2E950
:1036E0000010D3680968006810B41842946801EAB1
:1036F00004012ED0137C03F00303D9B943F008036F
:103700009908013B11740D2B0BD8DFE803F00D076E
:103710001C070A160D0D160A071C070D5369013BFD
:1037200053615DF8044B704753695DF8044B0133F6
:103730005361704743F00403E0E753695DF8044BBD
:10374000023B5361704753695DF8044B0233536188
:103750007047137C03F003030029D1D043F0040326
:10376000CEE700BF10170020224BD3F8D020D2E9BB
:103770000010D3680968006810B41842946801EA20
:1037800004012ED0137C03F00303D9B943F00803DE
:103790009908013B11740D2B0BD8DFE803F00D07DE
:1037A0001C070A160D0D160A071C070D5369013B6D
:1037B00053615DF8044B704753695DF8044B013366
:1037C0005361704743F00403E0E753695DF8044B2D
:1037D000023B5361704753695DF8044B02335361F8
:1037E0007047137C03F003030029D1D043F0040396
:1037F000CEE700BF10170020224BD3F8D420D2E927
:103800000010D3680968006810B41842946801EA8F
:1038100004012ED0137C03F00303D9B943F008034D
:103820009908013B11740D2B0BD8DFE803F00D074D
:103830001C070A160D0D160A071C070D5369013BDC
:1038400053615DF8044B704753695DF8044B0133D5
:103850005361704743F00403E0E753695DF8044B9C
:10386000023B5361704753695DF8044B0233536167
:103870007047137C03F003030029D1D043F0040305
:10388000CEE700BF10170020214B9A6BD2E9001041
:10389000D3680968006810B41842946801EA04010A
:1038A0002ED0137C03F00303D9B943F00803990821
:1038B000013B11740D2B0BD8DFE803F00D071C073B
:1038C0000A160D0D160A071C070D5369013B5361BB
:1038D0005DF8044B704753695DF8044B0133536145
:1038E000704743F00403E0E753695DF8044B023B83
:1038F0005361704753695DF8044B0233536170475D
:10390000137C03F003030029D1D043F00403CEE776
:1039100010170020214BDA6BD2E90010D368096838
:10392000006810B41842946801EA04012ED0137C98
:1039300003F00303D9B943F008039908013B11745C
:103940000D2B0BD8DFE803F00D071C070A160D0D31
:10395000160A071C070D5369013B53615DF8044BC0
:10396000704753695DF8044B01335361704743F06E
:103970000403E0E753695DF8044B023B5361704771
:1039800053695DF8044B023353617047137C03F0B5
:1039900003030029D1D043F00403CEE71017002021
:1039A000214B1A6CD2E90010D3680968006810B482
:1039B0001842946801EA04012ED0137C03F003033B
:1039C000D9B943F008039908013B11740D2B0BD8AA
:1039D000DFE803F00D071C070A160D0D160A071C79
:1039E000070D5369013B53615DF8044B7047536900
:1039F0005DF8044B01335361704743F00403E0E783
:103A000053695DF8044B023B5361704753695DF89D
:103A1000044B023353617047137C03F00303002906
:103A2000D1D043F00403CEE710170020214B5A6C8D
:103A3000D2E90010D3680968006810B4184294688D
:103A400001EA04012ED0137C03F00303D9B943F03B
:103A500008039908013B11740D2B0BD8DFE803F024
:103A60000D071C070A160D0D160A071C070D5369D2
:103A7000013B53615DF8044B704753695DF8044B9B
:103A800001335361704743F00403E0E753695DF885
:103A9000044B023B5361704753695DF8044B02339A
:103AA00053617047137C03F003030029D1D043F026
:103AB0000403CEE710170020214B9A6CD2E90010C6
:103AC000D3680968006810B41842946801EA0401D8
:103AD0002ED0137C03F00303D9B943F008039908EF
:103AE000013B11740D2B0BD8DFE803F00D071C0709
:103AF0000A160D0D160A071C070D5369013B536189
:103B00005DF8044B704753695DF8044B0133536112
:103B1000704743F00403E0E753695DF8044B023B50
:103B20005361704753695DF8044B0233536170472A
:103B3000137C03F003030029D1D043F00403CEE744
:103B400010170020214BDA6CD2E90010D368096805
:103B5000006810B41842946801EA04012ED0137C66
:103B600003F00303D9B943F008039908013B11742A
:103B70000D2B0BD8DFE803F00D071C070A160D0DFF
:103B8000160A071C070D5369013B53615DF8044B8E
:103B9000704753695DF8044B01335361704743F03C
:103BA0000403E0E753695DF8044B023B536170473F
:103BB00053695DF8044B023353617047137C03F083
:103BC00003030029D1D043F00403CEE710170020EF
:103BD000214B1A6DD2E90010D3680968006810B44F
:103BE0001842946801EA04012ED0137C03F0030309
:103BF000D9B943F008039908013B11740D2B0BD878
:103C0000DFE803F00D071C070A160D0D160A071C46
:103C1000070D5369013B53615DF8044B70475369CD
:103C20005DF8044B01335361704743F00403E0E750
:103C300053695DF8044B023B5361704753695DF86B
:103C4000044B023353617047137C03F003030029D4
:103C5000D1D043F00403CEE710170020214B5A6D5A
:103C6000D2E90010D3680968006810B4184294685B
:103C700001EA04012ED0137C03F00303D9B943F009
:103C800008039908013B11740D2B0BD8DFE803F0F2
:103C90000D071C070A160D0D160A071C070D5369A0
:103CA000013B53615DF8044B704753695DF8044B69
:103CB00001335361704743F00403E0E753695DF853
:103CC000044B023B5361704753695DF8044B023368
:103CD00053617047137C03F003030029D1D043F0F4
:103CE0000403CEE710170020214B9A6DD2E9001093
:103CF000D3680968006810B41842946801EA0401A6
:103D00002ED0137C03F00303D9B943F008039908BC
:103D1000013B11740D2B0BD8DFE803F00D071C07D6
:103D20000A160D0D160A071C070D5369013B536156
:103D30005DF8044B704753695DF8044B01335361E0
:103D4000704743F00403E0E753695DF8044B023B1E
:103D50005361704753695DF8044B023353617047F8
:103D6000137C03F003030029D1D043F00403CEE712
:103D700010170020214BDA6DD2E90010D3680968D2
:103D8000006810B41842946801EA04012ED0137C34
:103D900003F00303D9B943F008039908013B1174F8
:103DA0000D2B0BD8DFE803F00D071C070A160D0DCD
:103DB000160A071C070D5369013B53615DF8044B5C
:103DC000704753695DF8044B01335361704743F00A
:103DD0000403E0E753695DF8044B023B536170470D
:103DE00053695DF8044B023353617047137C03F051
:103DF00003030029D1D043F00403CEE710170020BD
:103E0000214B1A6ED2E90010D3680968006810B41B
:103E10001842946801EA04012ED0137C03F00303D6
:103E2000D9B943F008039908013B11740D2B0BD845
:103E3000DFE803F00D071C070A160D0D160A071C14
:103E4000070D5369013B53615DF8044B704753699B
:103E50005DF8044B01335361704743F00403E0E71E
:103E600053695DF8044B023B5361704753695DF839
:103E7000044B023353617047137C03F003030029A2
:103E8000D1D043F00403CEE710170020214B5A6E27
:103E9000D2E90010D3680968006810B41842946829
:103EA00001EA04012ED0137C03F00303D9B943F0D7
:103EB00008039908013B11740D2B0BD8DFE803F0C0
:103EC0000D071C070A160D0D160A071C070D53696E
:103ED000013B53615DF8044B704753695DF8044B37
:103EE00001335361704743F00403E0E753695DF821
:103EF000044B023B5361704753695DF8044B023336
:103F000053617047137C03F003030029D1D043F0C1
:103F10000403CEE710170020214B9A6ED2E900105F
:103F2000D3680968006810B41842946801EA040173
:103F30002ED0137C03F00303D9B943F0080399088A
:103F4000013B11740D2B0BD8DFE803F00D071C07A4
:103F50000A160D0D160A071C070D5369013B536124
:103F60005DF8044B704753695DF8044B01335361AE
:103F7000704743F00403E0E753695DF8044B023BEC
:103F80005361704753695DF8044B023353617047C6
:103F9000137C03F003030029D1D043F00403CEE7E0
:103FA00010170020214BDA6ED2E90010D36809689F
:103FB000006810B41842946801EA04012ED0137C02
:103FC00003F00303D9B943F008039908013B1174C6
:103FD0000D2B0BD8DFE803F00D071C070A160D0D9B
:103FE000160A071C070D5369013B53615DF8044B2A
:103FF000704753695DF8044B01335361704743F0D8
:104000000403E0E753695DF8044B023B53617047DA
:1040100053695DF8044B023353617047137C03F01E
:1040200003030029D1D043F00403CEE7101700208A
:10403000214B1A6FD2E90010D3680968006810B4E8
:104040001842946801EA04012ED0137C03F00303A4
:10405000D9B943F008039908013B11740D2B0BD813
:10406000DFE803F00D071C070A160D0D160A071CE2
:10407000070D5369013B53615DF8044B7047536969
:104080005DF8044B01335361704743F00403E0E7EC
:1040900053695DF8044B023B5361704753695DF807
:1040A000044B023353617047137C03F00303002970
:1040B000D1D043F00403CEE710170020214B5A6FF4
:1040C000D2E90010D3680968006810B418429468F7
:1040D00001EA04012ED0137C03F00303D9B943F0A5
:1040E00008039908013B11740D2B0BD8DFE803F08E
:1040F0000D071C070A160D0D160A071C070D53693C
:10410000013B53615DF8044B704753695DF8044B04
:1041100001335361704743F00403E0E753695DF8EE
:10412000044B023B5361704753695DF8044B023303
:1041300053617047137C03F003030029D1D043F08F
:104140000403CEE710170020214B9A6FD2E900102C
:10415000D3680968006810B41842946801EA040141
:104160002ED0137C03F00303D9B943F00803990858
:10417000013B11740D2B0BD8DFE803F00D071C0772
:104180000A160D0D160A071C070D5369013B5361F2
:104190005DF8044B704753695DF8044B013353617C
:1041A000704743F00403E0E753695DF8044B023BBA
:1041B0005361704753695DF8044B02335361704794
:1041C000137C03F003030029D1D043F00403CEE7AE
:1041D00010170020214BDA6FD2E90010D36809686C
:1041E000006810B41842946801EA04012ED0137CD0
:1041F00003F00303D9B943F008039908013B117494
:104200000D2B0BD8DFE803F00D071C070A160D0D68
:10421000160A071C070D5369013B53615DF8044BF7
:10422000704753695DF8044B01335361704743F0A5
:104230000403E0E753695DF8044B023B53617047A8
:1042400053695DF8044B023353617047137C03F0EC
:1042500003030029D1D043F00403CEE71017002058
:10426000224BD3F88020D2E90010D3680968006897
:1042700010B41842946801EA04012ED0137C03F0B4
:104280000303D9B943F008039908013B11740D2BBE
:104290000BD8DFE803F00D071C070A160D0D160AF0
:1042A000071C070D5369013B53615DF8044B7047D0
:1042B00053695DF8044B01335361704743F00403C5
:1042C000E0E753695DF8044B023B53617047536963
:1042D0005DF8044B023353617047137C03F0030312
:1042E0000029D1D043F00403CEE700BF101700200F
:1042F000224BD3F88420D2E90010D3680968006803
:1043000010B41842946801EA04012ED0137C03F023
:104310000303D9B943F008039908013B11740D2B2D
:104320000BD8DFE803F00D071C070A160D0D160A5F
:10433000071C070D5369013B53615DF8044B70473F
:1043400053695DF8044B01335361704743F0040334
:10435000E0E753695DF8044B023B536170475369D2
:104360005DF8044B023353617047137C03F0030381
:104370000029D1D043F00403CEE700BF101700207E
:10438000224BD3F88820D2E90010D368096800686E
:1043900010B41842946801EA04012ED0137C03F093
:1043A0000303D9B943F008039908013B11740D2B9D
:1043B0000BD8DFE803F00D071C070A160D0D160ACF
:1043C000071C070D5369013B53615DF8044B7047AF
:1043D00053695DF8044B01335361704743F00403A4
:1043E000E0E753695DF8044B023B53617047536942
:1043F0005DF8044B023353617047137C03F00303F1
:104400000029D1D043F00403CEE700BF10170020ED
:10441000224BD3F88C20D2E90010D36809680068D9
:1044200010B41842946801EA04012ED0137C03F002
:104430000303D9B943F008039908013B11740D2B0C
:104440000BD8DFE803F00D071C070A160D0D160A3E
:10445000071C070D5369013B53615DF8044B70471E
:1044600053695DF8044B01335361704743F0040313
:10447000E0E753695DF8044B023B536170475369B1
:104480005DF8044B023353617047137C03F0030360
:104490000029D1D043F00403CEE700BF101700205D
:1044A000224BD3F89020D2E90010D3680968006845
:1044B00010B41842946801EA04012ED0137C03F072
:1044C0000303D9B943F008039908013B11740D2B7C
:1044D0000BD8DFE803F00D071C070A160D0D160AAE
:1044E000071C070D5369013B53615DF8044B70478E
:1044F00053695DF8044B01335361704743F0040383
:10450000E0E753695DF8044B023B53617047536920
:104510005DF8044B023353617047137C03F00303CF
:104520000029D1D043F00403CEE700BF10170020CC
:10453000224BD3F89420D2E90010D36809680068B0
:1045400010B41842946801EA04012ED0137C03F0E1
:104550000303D9B943F008039908013B11740D2BEB
:104560000BD8DFE803F00D071C070A160D0D160A1D
:10457000071C070D5369013B53615DF8044B7047FD
:1045800053695DF8044B01335361704743F00403F2
:10459000E0E753695DF8044B023B53617047536990
:1045A0005DF8044B023353617047137C03F003033F
:1045B0000029D1D043F00403CEE700BF101700203C
:1045C000224BD3F89820D2E90010D368096800681C
:1045D00010B41842946801EA04012ED0137C03F051
:1045E0000303D9B943F008039908013B11740D2B5B
:1045F0000BD8DFE803F00D071C070A160D0D160A8D
:10460000071C070D5369013B53615DF8044B70476C
:1046100053695DF8044B01335361704743F0040361
:10462000E0E753695DF8044B023B536170475369FF
:104630005DF8044B023353617047137C03F00303AE
:104640000029D1D043F00403CEE700BF10170020AB
:10465000224BD3F89C20D2E90010D3680968006887
:1046600010B41842946801EA04012ED0137C03F0C0
:104670000303D9B943F008039908013B11740D2BCA
:104680000BD8DFE803F00D071C070A160D0D160AFC
:10469000071C070D5369013B53615DF8044B7047DC
:1046A00053695DF8044B01335361704743F00403D1
:1046B000E0E753695DF8044B023B5361704753696F
:1046C0005DF8044B023353617047137C03F003031E
:1046D0000029D1D043F00403CEE700BF101700201B
:1046E000224BD3F8A020D2E90010D36809680068F3
:1046F00010B41842946801EA04012ED0137C03F030
:104700000303D9B943F008039908013B11740D2B39
:104710000BD8DFE803F00D071C070A160D0D160A6B
:10472000071C070D5369013B53615DF8044B70474B
:1047300053695DF8044B01335361704743F0040340
:10474000E0E753695DF8044B023B536170475369DE
:104750005DF8044B023353617047137C03F003038D
:104760000029D1D043F00403CEE700BF101700208A
:10477000224BD3F8A420D2E90010D368096800685E
:1047800010B41842946801EA04012ED0137C03F09F
:104790000303D9B943F008039908013B11740D2BA9
:1047A0000BD8DFE803F00D071C070A160D0D160ADB
:1047B000071C070D5369013B53615DF8044B7047BB
:1047C00053695DF8044B01335361704743F00403B0
:1047D000E0E753695DF8044B023B5361704753694E
:1047E0005DF8044B023353617047137C03F00303FD
:1047F0000029D1D043F00403CEE700BF10170020FA
:10480000224BD3F8A820D2E90010D36809680068C9
:1048100010B41842946801EA04012ED0137C03F00E
:104820000303D9B943F008039908013B11740D2B18
:104830000BD8DFE803F00D071C070A160D0D160A4A
:10484000071C070D5369013B53615DF8044B70472A
:1048500053695DF8044B01335361704743F004031F
:10486000E0E753695DF8044B023B536170475369BD
:104870005DF8044B023353617047137C03F003036C
:104880000029D1D043F00403CEE700BF1017002069
:10489000224BD3F8AC20D2E90010D3680968006835
:1048A00010B41842946801EA04012ED0137C03F07E
:1048B0000303D9B943F008039908013B11740D2B88
:1048C0000BD8DFE803F00D071C070A160D0D160ABA
:1048D000071C070D5369013B53615DF8044B70479A
:1048E00053695DF8044B01335361704743F004038F
:1048F000E0E753695DF8044B023B5361704753692D
:104900005DF8044B023353617047137C03F00303DB
:104910000029D1D043F00403CEE700BF10170020D8
:10492000224BD3F8B020D2E90010D36809680068A0
:1049300010B41842946801EA04012ED0137C03F0ED
:104940000303D9B943F008039908013B11740D2BF7
:104950000BD8DFE803F00D071C070A160D0D160A29
:10496000071C070D5369013B53615DF8044B704709
:1049700053695DF8044B01335361704743F00403FE
:10498000E0E753695DF8044B023B5361704753699C
:104990005DF8044B023353617047137C03F003034B
:1049A0000029D1D043F00403CEE700BF1017002048
:1049B0000B4610B5362800F29782DFE810F08C0223
:1049C00082027902700267025E0255024C024302C3
:1049D0003A02310228021F02BF01B601AD01A40153
:1049E0009B0192018901800177016E0165015C01E3
:1049F00053014A01410138012F0126011D01130114
:104A00000901FF00F500EB00E100D700CD00C30075
:104A1000B900AF00A5009B00910087007D007300E6
:104A200069005F0055004B0041003700C84C04226C
:104A3000C8493620C4F8D83001F08AF9012010BDE9
:104A4000C34C0422C4493520C4F8D43001F080F9A5
:104A5000012010BDBE4C0422C0493420C4F8D0301F
:104A600001F076F9012010BDB94C0422BC49332075
:104A7000C4F8CC3001F06CF9012010BDB44C042214
:104A8000B8493220C4F8C83001F062F9012010BDE5
:104A9000AF4C0422B4493120C4F8C43001F058F9B5
:104AA000012010BDAA4C0422B0493020C4F8C03007
:104AB00001F04EF9012010BDA54C0422AC492F2075
:104AC000C4F8BC3001F044F9012010BDA04C042210
:104AD000A8492E20C4F8B83001F03AF9012010BDE1
:104AE0009B4C0422A4492D20C4F8B43001F030F9C5
:104AF000012010BD964C0422A0492C20C4F8B030EF
:104B000001F026F9012010BD914C04229C492B2074
:104B1000C4F8AC3001F01CF9012010BD8C4C04220B
:104B200098492A20C4F8A83001F012F9012010BDDC
:104B3000874C042294492920C4F8A43001F008F9D4
:104B4000012010BD824C042290492820C4F8A030D6
:104B500001F0FEF8012010BD7D4C04228C49272075
:104B6000C4F89C3001F0F4F8012010BD784C042208
:104B700088492620C4F8983001F0EAF8012010BDD9
:104B8000734C042284492520C4F8943001F0E0F8E5
:104B9000012010BD6E4C042280492420C4F89030BE
:104BA00001F0D6F8012010BD694C04227C49232075
:104BB000C4F88C3001F0CCF8012010BD644C042204
:104BC00078492220C4F8883001F0C2F8012010BDD5
:104BD0005F4C042274492120C4F8843001F0B8F8F5
:104BE000012010BD5A4C042270492020C4F88030A6
:104BF00001F0AEF8012010BD554C04226C491F2075
:104C0000E36701F0A5F8012010BD514C0422694969
:104C10001E20A36701F09CF8012010BD4C4C04221B
:104C200065491D20636701F093F8012010BD484CD1
:104C3000042262491C20236701F08AF8012010BD7C
:104C4000434C04225E491B20E36601F081F80120F9
:104C500010BD3F4C04225B491A20A36601F078F88E
:104C6000012010BD3A4C042257491920636601F017
:104C70006FF8012010BD364C0422544918202366D9
:104C800001F066F8012010BD314C04225049172074
:104C9000E36501F05DF8012010BD2D4C04224D4963
:104CA0001620A36501F054F8012010BD284C042201
:104CB00049491520636501F04BF8012010BD244CD3
:104CC000042246491420236501F042F8012010BD5A
:104CD0001F4C042242491320E36401F039F80120FB
:104CE00010BD1B4C04223F491220A36401F030F890
:104CF000012010BD164C04223B491120636401F0D1
:104D000027F8012010BD124C0422384910202364DA
:104D100001F01EF8012010BD0D4C042234490F2073
:104D2000E36301F015F8012010BD094C042231495C
:104D30000E20A36301F00CF8012010BD044C0422E6
:104D40002D490D20636301F003F8012010BD00BF61
:104D500010170020410C000069180000D91700004E
:104D600049170000B9160000291600009915000027
:104D70000915000079140000310A00009129000093
:104D80000129000071280000E127000051270000E0
:104D9000C126000031260000A125000011250000D9
:104DA00081240000F123000061230000D1220000D3
:104DB00045220000B92100002D210000A1200000A3
:104DC00015200000891F0000FD1E0000711E00005C
:104DD000E51D0000591D0000CD1C0000411C000015
:104DE000B51B0000291B00009D1A0000111A0000CD
:104DF00085190000F9180000ED1300003B4C042257
:104E00003B490C20236300F0A3FF012010BD374C69
:104E1000042238490B20E36200F09AFF012010BD04
:104E2000324C042234490A20A36200F091FF012091
:104E300010BD2E4C042231490920636200F088FF26
:104E4000012010BD294C04222D490820236200F0C6
:104E50007FFF012010BD254C04222A490720E36171
:104E600000F076FF012010BD204C042226490620C8
:104E7000A36100F06DFF012010BD1C4C04222349EA
:104E80000520636100F064FF012010BD0422174C6F
:104E90001F491046236100F05BFF012010BD134C39
:104EA00004221C490320E36000F052FF012010BDE2
:104EB0000E4C042218490220A36000F049FF012093
:104EC00010BD04460948042214494360012000F043
:104ED0003FFF204610BD054C0422114900202360ED
:104EE00000F036FF012010BD002010BD101700207B
:104EF00061130000D512000049120000BD1100002E
:104F000031110000A5100000191000008D0F0000E5
:104F1000010F0000750E0000E90D00005D0D00009E
:104F2000D10C00002DE9F0410F461646044602213F
:104F3000384600F0D3FE0221304600F0CFFE224B6F
:104F40003A0122483101DFF88CC053F8028003EBAC
:104F50000712C4F80080D2F80CE003EB061259588F
:104F60000023C4F808E0D2686361194BE260456829
:104F70001B686160ACFB033C4FF4FA634FEA9C4C46
:104F800003FB0CFC43685B1B9C45FBD8D8F8003046
:104F9000384609681EEA030F14BF012300230A42A2
:104FA000214618BF43F002032374FFF701FD0346B7
:104FB000214630462376FFF7FBFC227E034620463F
:104FC00013442376BDE8F08130040020001000E097
:104FD000240C002083DE1B432DE9F043AE4D83B04B
:104FE000AE4C40F2EE28AE4FDFF84C932E6802F044
:104FF000CBFB2378002B00F033813B78DA0740F1BC
:105000002F812B68D9F800209B1A0E2B40F22881A3
:10501000A34F40F6B736DFF8208302F0B5FB2378C4
:10502000002B00F028813B78DB0740F124812B68BE
:10503000D8F800209B1A0E2B40F21D812721994899
:1050400002F024FB984800F0A9FA2521974802F0C5
:105050001DFB954800F0A2FA2021954802F016FBAE
:10506000914800F09BFA27218E4802F00FFB8E48F2
:1050700000F094FA8F48FDF727F844F620618D4838
:10508000FDF736F88C48FDF71FF844F620618A4892
:10509000FDF72EF88948FDF717F844F62061874898
:1050A000FDF726F88648FDF70FF844F6206184489E
:1050B000FDF71EF88348FDF707F844F620618148A4
:1050C000FDF716F88048FCF7FFFF44F620617E48A4
:1050D000FDF70EF87D487E4C9FED6B1B9FED6C0B32
:1050E000FDF77AF87B489FED681B9FED690BFDF794
:1050F00073F879489FED641B9FED650BFDF76CF825
:1051000076489FED611B9FED620BFDF765F87448D3
:105110009FED5D1B9FED5E0BFDF75EF871489FED07
:105120005A1B9FED5B0BFDF757F800946E4C002166
:10513000604B664A6D48FDF7DBF800946C4C01212A
:105140005D4B644A6948FDF7D3F80094694C02212D
:105150005A4B614A6548FDF7CBF80094664C032131
:10516000574B5E4A6148FDF7C3F80094634C002139
:10517000544B5B4A5D48FDF7C7F8534B594A012130
:105180005A480094FDF7C0F80A215D4802F07EFA03
:10519000454800F003FA28215A4802F077FA4248BD
:1051A00000F0FCF91B21584802F070FA3E4800F06C
:1051B000F5F91721554802F069FA3B4800F0EEF97D
:1051C0001821534802F062FA374800F0E7F9152138
:1051D000504802F05BFA344800F0E0F917214E48DD
:1051E00002F054FA304800F0D9F92D214B4802F072
:1051F0004DFA2D4800F0D2F91F21494802F046FA35
:10520000294800F0CBF91E21464802F03FFA264813
:1052100000F0C4F91D21444802F038FA224800F099
:10522000BDF91721414802F031FA1F4800F0B6F9E4
:1052300019213F4802F02AFA1B4800F0AFF9272154
:10524000184802F023FA184800F0A8F90E2139484E
:1052500002F01CFA144803B0BDE8F04300F09EB918
:105260002B6822789B1B5AB1B3F5FA6F3FF6D0AE8C
:1052700002F08AFABBE62B68B3427FF6CEAEDDE6DB
:105280004345F5D9C4E600BF0000000000E06F40D0
:105290000000000000E06FC0D01A0020FE1A0020BD
:1052A000FD1A00207C080020280C0020A408002003
:1052B000CC080020F0190020041A0020181A002041
:1052C0002C1A0020541A0020401A002088140020B4
:1052D00028190020D0140020181500206015002087
:1052E000F0150020A81500204419002038160020D1
:1052F000601900207C190020B419002098190020A2
:10530000F0080020FC0800202809002044090020A3
:105310005C0900207809002090090020A8090020DD
:10532000D8090020F8090020180A0020380A0020B7
:10533000500A00206C0A0020E01A002008B502F094
:105340003BF9002801DDFDF783FB0748FDF726FA4E
:105350000649074A0B6810681B1AB3F5FA7F01D398
:105360000B68136008BD00BF38160020D01A00205B
:10537000EC1700200000000008B52DED048B9FED18
:10538000468BB6EE001B0A21B0EE000B4848B0EE8B
:10539000482BFCF7F9FEB0EE482BB6EE001B0A21B5
:1053A000B0EE000B4348FCF7EFFEB0EE482BB6EE34
:1053B000001B0A21B0EE000B3F48FCF7E5FEB0EE03
:1053C000482BB6EE001B0A21B0EE000B3B48FCF761
:1053D000DBFEB0EE080B0A2139489FED319B9FEDB3
:1053E000328BB0EE492BB0EE481BFCF7CDFEB0EE91
:1053F000492BB0EE481B0A21B0EE080B3148FCF7F0
:10540000C3FE0323022201212F48FCF755FE082387
:10541000072202212D48FCF74FFE0C230B2203210B
:105420002B48FCF749FE1323122204212948FCF7DC
:1054300043FE1723162205212748FCF73DFE1D23B6
:105440001C2206212548FCF737FE062205212448A8
:10545000FFF768FD0A2209212248FFF763FD0F22AA
:105460000E212148FFF75EFD152214211F48FFF78A
:1054700059FD192218211E48FFF754FD1F221E2135
:105480001C48FFF74FFD1C48BDEC048BBDE80840ED
:10549000FCF70EBFAFF300809A9999999999B93F9B
:1054A0009A9999999999C93F9A9999999999E93F9E
:1054B00088140020D014002018150020601500204A
:1054C000F0150020A8150020F0190020041A002073
:1054D000181A00202C1A0020541A0020401A00200C
:1054E0002819002044190020601900207C19002090
:1054F000B41900209819002038160020084602F040
:10550000AFB800BF012A70B508BF0A228AB091B3B4
:105510004FF0210E01E05FFA86FE0EF1FF36B1FB7F
:10552000F2F502FB15145FFA84FC092C0CF1370428
:105530000CF1300C98BF5FFA8CF40EF1280C88BF88
:10554000E4B29142EC4429460CF8244CE3D24BB12E
:105550000EF1FF3E2D225FFA8EFE0EF128036B4402
:1055600003F8242C036801A9CEF122025B68714480
:1055700098470AB070BD30224FF0210E8DF82520DB
:10558000E5E700BF002903DB00230A22FFF7BABFCB
:1055900049422D230A22FFF7B5BF00BF00B50368BB
:1055A00083B040F60D2C022201A95B68ADF804C05F
:1055B000984703B05DF804FBB4EE400B70B5F1EE14
:1055C00010FA05462DED028B86B07CD6B0EEC07B7E
:1055D0009FED476BB4EE467BF1EE10FA6BDC9FED6E
:1055E000467BB4EEC70BF1EE10FA5ADC9FED447B1C
:1055F000B4EEC70BF1EE10FA53D4B5EEC00B0C4667
:10560000F1EE10FA5BD40023B6EE007B002C5ED0E6
:105610004FF0000C9FED3C6B0CF1010C27EE067B6C
:105620005FFA8CF2A242F7D330EE070B0A2228462B
:10563000FCEEC07BB8EE678B17EE901A30EE488B0D
:10564000FFF760FF0F2C4FF02E03B2EE046B0646FF
:1056500028BF0F248DF808300DF1090302AA611E3E
:1056600053FA81F128EE060BFCEEC07BCDED017AFA
:105670009DF8043007EE903A3033B8EEE78B02F82D
:10568000013F914230EE488BECD12B68013402A9E6
:1056900028465B68E2B29847304606B0BDEC028B04
:1056A00070BD2B6803221A495B6806B0BDEC028B03
:1056B000BDE870401847036803221649F4E7B1EECD
:1056C000400B0123A0E7036803221349ECE730EE07
:1056D000070B0A222846FCEEC07B17EE901A06B094
:1056E000BDEC028BBDE87040FFF70CBFAFF300804C
:1056F000FFFFFFFFFFFFEF7F000000E0FFFFEF4134
:10570000000000E0FFFFEFC19A9999999999B93F7C
:105710000404002000040020FC03002001F090BFDE
:1057200001F028BF2DE9F84F234C83460F469046E1
:10573000224EDFF88CA0DFF88C9025680BE001F09A
:1057400019FF002810DA02F01FF82368DBF80820A0
:105750005B1B93421ED2DBF800309B69B342EED054
:10576000584698470028EEDB2D2815D0A0F13003CD
:10577000092B11D92E2802D1B8F1000F19D1012F10
:1057800008D0022F0AD10938172803D82AFA00F0C6
:10579000C30703D44FF0FF30BDE8F88FDBF80030CB
:1057A0005B694B4502D101F04BFFC6E7584698476D
:1057B000C3E72E20F0E700BFD01A00209137000089
:1057C000130080008D3700002DE9F04F17460122AD
:1057D00083462DED048B83B0FFF7A4FF002871DB17
:1057E0004FF0000AB7EE008ADFF80081D1463C4C4A
:1057F0003C4ECDF804A09FED389BB84203D02D2835
:105800004AD101230193DBF80020526942452CD193
:1058100001F016FF25680BE001F0ACFE002810DA5D
:1058200001F0B2FF2268DBF80810521B8A4221D235
:10583000DBF800209269B242EED05846904700282B
:10584000EEDBA0F13002092AD7D92E2810D1B9F108
:10585000000F0DD12E2F4FF00009D4D0DBF800201F
:105860004FF0010952694245D2D058469047D1E7DE
:10587000B842C8D0019B0BB1CAF1000A07EE90AA4A
:10588000B8EEE70AB9F1000F01D020EE080A03B024
:10589000BDEC048BBDE8F08F2E28DFD0A0F13002E4
:1058A000092AB0D80AEB8A0A00EB4A00A0F1300AB4
:1058B000B9F1000FA7D0B7EEC87A27EE097BB7EE93
:1058C000C78BA0E79FED080A03B0BDEC048BBDE8D1
:1058D000F08F00BFAFF300809A9999999999B93FD9
:1058E000D01A002091370000000000008D37000022
:1058F000A249A34B88422DE9F047A24C5E699A6900
:10590000D4F80C801BD9A04B984240F20281C31AF4
:105910009E491B0AA1FB031340F22761DB0903EB3D
:10592000830303EB830303F2E2438B4228BF0B465E
:10593000A3F54877964BA3FB0737FF0804E0954F84
:10594000B8428CBF0E2706278D4908F01F09D1F8F1
:105950008030B94543F0C003C1F880300CD228F044
:105960001F08A1F5F82148EA0708C1F80C800B6868
:10597000002BFCDA08F01F0916F0007324D18649C9
:105980000C698649A14300F0EA8082F480513446D4
:105990004FF4805514F0605F04D026F060561E432B
:1059A000774B5E6111F4405F07D022F44052744996
:1059B0002A438A618B6C1A07FCD446F00076704A41
:1059C0005661936C9B06FCD4754CA04200F2CE80CD
:1059D0004FF0010C0146634603FB011203F1010E77
:1059E0000CF10105A24218D8BEF1080F4FF00103D7
:1059F00040F08D80BCF1040F00F291800A18A242A1
:105A000000F2A48005FB00F1AC4603F1010E03FB9C
:105A100001120CF10105A242E6D90CF1FF318C0212
:105A200086EA81215F4810445F4A90427FD9DFF8BF
:105A3000A4A16C225D48584DB0FBFEF0D5F800E003
:105A4000B0FBFCF0DFF890C10EEA0C0CD44509D095
:105A500042F400524FF4805CC5F800C02A602A6806
:105A6000002AFCDA464A156905F007059D4203D075
:105A70001361936CDD03FCD411F4E05F09D026F4CC
:105A8000E05604F4E0543E4A26435661936C99076D
:105A9000FCD44749474A014491423CD8464BC90986
:105AA000A3FB0131090B4B1E1B0286EA030212F411
:105AB000407F06D026F4407603F44073304A3343E7
:105AC00053612F4A536923F000735361936C9B0613
:105AD000FCD43A4B4F45A3FB00234FF0FF324FEA73
:105AE0009343B0FBF1F1B2FBF3F3354A1060354A52
:105AF0001160354A136008D228F01F08214A48EA8D
:105B00000707D7601368002BFCDABDE8F0877346FF
:105B100062E7122718E74FF440730421C5E70CF140
:105B2000FF31204807238C02104486EA8121274A4E
:105B3000DFF8A8A0A2FB0020020D2548362A38BFB6
:105B4000362202FB00F042EA0A0A74E74FEA8C248C
:105B5000002386EA8C214FF0010EAC4662E71D4619
:105B600086F0C05411464FF0C05313E700244FF0A5
:105B7000010C024631462346E64653E700A4781F4F
:105B800000C00F40000008400046C32323B24C0071
:105B90001F85EB5100366E0100800D4040300080C3
:105BA000FFB19F26808D5B00FF7EF64D00643F4D68
:105BB0007FD1F0087F17B42C9F10E50083DE1B43D4
:105BC000240C0020200C0020C81A0020819F5E16A3
:105BD000001BB7006C2000807F3001800020008017
:105BE00000B970472DE9F84F01218146214C224D23
:105BF000224E54E8003F2A68306844E80013002B26
:105C0000F7D11F494B684FF47A7BDFF878A01B1A55
:105C100001270BFB02F8DAF80020A3FB02325A45F9
:105C200094BF9044D84454E8003F2A68306844E860
:105C30000073002BF7D14B68DAF800C01B1A0BFB7E
:105C400002F2A3FB0C3CBCF57A7F94BF624402F5E0
:105C50007A72A2EB0802B2F57A7F06D3B9F1010994
:105C600008F57A78DFD1BDE8F88F01F08DFD0449A1
:105C7000D9E700BFD41A0020D01A0020CC1A002087
:105C8000001000E0C81A0020362816D80201104B78
:105C900003EB00109B5810B4C2685C68144205D036
:105CA00061B95DF8044BC3F888207047836851B12F
:105CB000084A5DF8044B1A60704770475DF8044B62
:105CC000C3F884207047044A5DF8044B1A6070479B
:105CD0003004002038F0010038300100362829D87F
:105CE000164B0201012903EB00109A5810B45368B7
:105CF000C4680ED004290CD023EA040353608368DF
:105D0000A9B1022917D003290CBF0D4A0D4A1A6008
:105D100007E0234301295360836808D040F6380226
:105D20001A60436815225DF8044B1A6070473822E8
:105D30001A60F6E77047044A1A60F2E73004002060
:105D4000383001003800010038F00100704700BF12
:105D5000362858D80001F0B4344C354D2358AB42A6
:105D600056D049D8B3F1844F4BD0A5F58045AB420E
:105D700040D1304D2044304E304CC4F8B462D0E9AC
:105D800001C4C0684FF0E0264FF00057042AC6F85F
:105D900010712FD85E6926EA00065E614FF0050695
:105DA000CCF80060266846F4803626605C6824EAF9
:105DB00000045C60224C54F8224090FAA0F2B2FA3F
:105DC00082F245F822106FEA00011DD0DD690F2A2A
:105DD00001EA0501D9611DDC52000325D968944010
:105DE00005FA02F221EA02022243DA6098615A6956
:105DF00002435A61F0BC7047124DAB42FAD1124DCA
:105E0000B8E7124DB6E77047DA690243DA61EDE7A9
:105E10000F4DAFE7103A032519695200944005FA77
:105E200002F221EA020222431A61DFE73004002075
:105E300000800042D00C0020210000000010002053
:105E40008002002000C00042D00D0020500C002035
:105E5000500D002008B5FFF7BFF8FFF76FFA01F00B
:105E600093FCFAE7844641EA000313F003036DD183
:105E7000403A41D351F8043B40F8043B51F8043B0D
:105E800040F8043B51F8043B40F8043B51F8043B14
:105E900040F8043B51F8043B40F8043B51F8043B04
:105EA00040F8043B51F8043B40F8043B51F8043BF4
:105EB00040F8043B51F8043B40F8043B51F8043BE4
:105EC00040F8043B51F8043B40F8043B51F8043BD4
:105ED00040F8043B51F8043B40F8043B51F8043BC4
:105EE00040F8043B51F8043B40F8043B51F8043BB4
:105EF00040F8043B403ABDD2303211D351F8043B54
:105F000040F8043B51F8043B40F8043B51F8043B93
:105F100040F8043B51F8043B40F8043B103AEDD202
:105F20000C3205D351F8043B40F8043B043AF9D253
:105F3000043208D0D2071CBF11F8013B00F8013B26
:105F400001D30B8803806046704700BF082A13D333
:105F50008B078DD010F003038AD0C3F10403D21A4B
:105F6000DB071CBF11F8013B00F8013B80D331F87F
:105F7000023B20F8023B7BE7043AD9D3013A11F8FF
:105F8000013B00F8013BF9D20B7803704B7843706A
:105F90008B7883706046704701F1FF3C70B56646B0
:105FA000002400E00134B0FBF2F502FB1503092BDD
:105FB00003F1370E03F130035FFA8EFE98BF5FFAEC
:105FC00083FE9042284606F801EFEBD2631C0022C4
:105FD000C818CA547CB162461CF8015F10F8016D04
:105FE000A1EB0C0302328CF80060013B521A0570E1
:105FF00023449A42EFDB084670BD00BF4FF0010C0E
:106000000CFA01FC01EB410100EB411170B5B1F854
:106010000EE01FFA8CF5254C1FFA8EFE24782E0117
:106020000EFB033306F0F006E340B0F888417345F9
:10603000A4B228BF73463443012AA0F888410DD08A
:10604000022A28D0C2B10CF00F02B0F888C11FFAA2
:106050008CFC4CEA020CA0F888C170BD9BB20CF01D
:106060000F022D02CB82B0F8803105F470659BB22F
:106070002B43A0F88031E8E7AEEB030E0CF00F02E3
:106080001FFA8EFEA1F80AE0B0F880319BB21343EC
:10609000A0F88031D9E79BB20CF00F02CB83B0F8A7
:1060A00080319BB21E43A0F88061CEE7A20E002093
:1060B00001EB4103F6EE006A00EB4313B3F80EC0A8
:1060C000314B1FFA8CFC93ED007AB8EE477A70B52D
:1060D000C7EE007A4FF0010E4E000EFA01FE1FFAD5
:1060E0008EF577EEA67AFCEEE77A17EE903AB3F5E6
:1060F000803F46D300224FF6FF745B080132A34273
:1061000001D9062AF9D9120142F4806292B2022B17
:106110004FF6FF744FEA0515314438BF02230EF0E5
:106120000F0EEDB2A34200EB411128BF2346B0F899
:106130008841A4B22C43A0F88841CA805A1E92B26A
:10614000CA814A8992B203FB02F2B2FBFCF292B21C
:106150004A81CA8A92B203FB02F2B2FBFCF292B20B
:10616000CA82CA8B92B202FB03F3B3FBFCF39BB26D
:10617000CB83B0F888319BB243EA0E03A0F8883194
:1061800070BD4FF48062C2E7200C0020214BF6EE78
:10619000006A4FF6FE7C93ED007AB8EE477AC7EEC0
:1061A000007A77EEA67AFCEEE77A17EE903A63452E
:1061B0002CD900225B080132634501D9062AF9D99E
:1061C000083242F2260C4CEA422C1FFA8CFC022BBD
:1061D00000EB41114FF6FE7038BF02230A8A83425A
:1061E00092B228BF0346C88880B2C0F101101044A3
:1061F00003FB02F2B2FBF0F29B1A92B2C3F101036D
:106200009BB2CB800A82A1F80CC0704743F2260CE7
:10621000DDE700BF200C002036284BD8F8B52A4D0A
:10622000044615F8202005EB8005012A2DD0022A0E
:106230003FD16B78C3F3011003283ED0234A02EB11
:10624000803203F0030C224889B2634602EB4C1CF7
:106250000678BCF806E05801BCF810301FFA8EFE34
:10626000CEF1011E1EFA83F303F1FF3E0EFB01F196
:10627000F1408E4523D95B1AC3F101039BB289B269
:106280000244ACF8063011820DE06A78C2F30113C3
:10629000032B10D00F4800EB83308BB202F00301C8
:1062A000AA78FFF7ABFE0C4BEA7803EB04135B68AC
:1062B0001A60F8BD70470948EFE7094AC1E7991E1F
:1062C0004FF6FF73DBE700BFA007002000C01D40B2
:1062D000A20E002000C03D403004002000803E405F
:1062E00000801E40362808D8154B13F8202003EBF9
:1062F0008003012A02D0022A0DD070475978C1F3D9
:106300000112032A13D00F4801F0030100EB823081
:106310009A78FFF7CDBE5978C1F30113032B0CD047
:10632000094800EB833001F00301FFF72FBF074856
:1063300001F003019A78FFF7BBBE0548F3E700BF01
:10634000A007002000C03D4000C01D4000803E402E
:1063500000801E4000230F2248F2B82C194610B5C9
:106360004FF470444FF4806EA0F88C414FF46044B9
:10637000A0F88E210A46A0F89031B0F888319BB27F
:1063800043F0F003A0F8883101EB4103013100EB49
:10639000431304299C80A3F806E05A841A865A8085
:1063A0005A81A3F80EC05A82DA825A83DA83EBD17B
:1063B000B0F888319BB243F00F03A0F88831B0F8F1
:1063C00088319BB243F47063A0F8883110BD00BFE0
:1063D000374B384A996F384841F47F0170B5996757
:1063E00041F20106D3F8801045F6C05543F2260469
:1063F0000A43C3F88020FFF7ADFF00F58040FFF7A8
:10640000A9FF00F58040FFF7A5FF00F58040FFF7EA
:10641000A1FF0022A0F503104FF00F0E114600EB74
:1064200042134FEA421C01329981042A5981A3F890
:106430000EE09E82DD8020F80C1019829C81EED146
:1064400000221E484FF00F0E41F20106114645F69C
:10645000C05543F2260400EB42134FEA421C0132BE
:106460009981042A5981A3F80EE09E82DD8020F8EC
:106470000C1019829C81EED1002211480F2641F2A6
:106480000105114645F6C05443F2260E00EB4213B7
:106490004FEA421C01329981042A5981DE819D8292
:1064A000DC8020F80C101982A3F80CE0EED170BD4E
:1064B00000C00F40000003FC00C03D4000001E4033
:1064C00000401E4010280346044A28BF10231078BD
:1064D000012B38BF01231370704700BFA20E0020AC
:1064E00072B6EFF30583524CC4F884301EF0040FEB
:1064F0000CBFEFF30882EFF309824FF0E0234D4E1B
:106500004D4DD3F8280DD3F82C1DC4E92201D3F842
:10651000341DD3F8383DC4E924139369C4F8983086
:10652000D369C4F89C3000F0A3F884ED280A01F088
:10653000CBF90B214FF0FF32C4F8A4000B46C4F88E
:1065400080103E49301D5A40202402F00103013CD6
:1065500001FB03F383EA5202F7D1A84202D0736829
:106560000646EFE7324BC3F8A820BFF34F8F4FF03A
:10657000E0233049324AC3F8701FC3F8702FBFF3CD
:106580004F8FBFF36F8F2F4A02252F48D36E2F49AD
:1065900043F44053D3660560D3692D4823F07F034D
:1065A00043F04003D3610B6883423DD8264D002160
:1065B0004FF0E0234FF0FF3229600126C5F80811A3
:1065C0002449C5F80011C5F80861C3F88021C3F853
:1065D0008421C3F88821C3F88C21C3F8902101E0FD
:1065E00000F038F9D5F80C31002BF9D00134C5F89A
:1065F0000C614F2CF4D9184B022018494FF000427F
:10660000C1F840015A63D5F80C313BB9144815491B
:106610000D4A0163D2F80C31002BFAD04FF0E02381
:10662000114AC3F80C2DFEE7FFF762F9BEE700BF81
:1066300000FF272080FF2720A8FF27202083B8ED18
:10664000A0FF272000C00F4000400840240C00207D
:10665000803DCD0B009F240000900D4000002E4097
:1066600000800F40F100AD0B0400FA05FFF738BFC2
:10667000124AD2F880305B07FBD5D2F88030104840
:10668000C3F30B230F4990ED007A07EE903A91ED9A
:10669000006AB8EE477A0C4AF8EEE77A0B4BD2ED77
:1066A000006A77EEC77A93ED007AB8EE477A67EE24
:1066B000867A87EEA60A37EE400A704700810D40C1
:1066C000B81A0020C01A0020C41A0020BC1A0020EA
:1066D000836BF0B41BB1536843F40043536072B64C
:1066E000446B3CB31A4B2260D3F8B0410C421DD12D
:1066F000184E776804E07468E41BB4F5166F0BD28B
:10670000D3F8404144F48044C3F84041D3F8B85131
:10671000D3F840416404EED50D4007D10C4CC0E9DC
:106720000225D4F8B0310B43C4F8B031426362B6ED
:10673000F0BC7047064DC0E90224D5F8B0310B43D8
:10674000C5F8B0310263426362B6F0BC704700BF67
:1067500000002E40001000E070B5056B9DB10646AC
:106760002A46002403E012680134012A0CD0536841
:1067700013F08003F7D032632CB12846B36B2D6839
:106780009847013CF9D170BDC6E90C33F4E700BF6E
:1067900030B4D9B91F4C204B0021204A01254FF0BD
:1067A000011099601D60C4E9023180245C60C2F868
:1067B000BC01D2F8B0311A482B43C2F8B0310160A5
:1067C000D2F8B031002BFBD130BC70470904154B17
:1067D000104C012541F080019860104A596000F585
:1067E00080511D60D96000F50051A364196100F566
:1067F000405100F58040596100219861E164D2F870
:10680000B03143F48033C2F8B031D2F8B031002B4C
:10681000FBD1C0E700000020C012002000002E4085
:10682000D8190020E0120020084901220B7802FA52
:1068300000F023EA0000087030B9054AD2F8483168
:1068400023F08003C2F84831704700BFF91A0020D6
:1068500000002E402DE9F04F974C83B0D4F84471DE
:10686000FB07C4F8447153D5D4F8AC21002A4AD0B0
:10687000924EDFF860A2DFF87492DFF874B2DFF8AE
:106880007482C4F8AC21D6E90A20D4F8403143F42C
:106890000053C4F84031D4F840319D04F5D5D4F804
:1068A000403123F40053C4F840314FF00113C4F8D1
:1068B000B431D4F8B45115F00115FAD193B284462D
:1068C000CAF80050B3F5086F00F0CF8100F2DB800A
:1068D00040F202318B4200F0E78100F29A80822B75
:1068E00000F0CB81B3F5817F40F08A8010F0780F03
:1068F00083B200F003824FF00113C4F8C031D4F822
:10690000AC21002ABDD16C4AD2F8BC31002B42D157
:106910007E0616D5684BD3F8AC21C3F8AC21D3F86A
:10692000BC21C3F8BC21D3F8B041002CFBD14FF0FF
:10693000FF32C3F8B421D3F8843100F029FD604B55
:106940001C60FC0103D55F4B1B6803B19847B8017D
:1069500003D55D4B1B6803B19847790708D5564BA3
:10696000D3F8843113F4007347D0584B01221A70C6
:10697000514BD3F848311A060AD53B0608D5544A7C
:1069800013782BB1013BDBB21370002B00F0728245
:1069900003B0BDE8F08F4F49C2F8BC31086803422C
:1069A00040F0D181464A14681C40B1D05FEA1448D7
:1069B00010D0424E4FF0010998FAA8F5B5FA85F5C6
:1069C00006EBC51009FA05F54030FFF7C5FE38EAB9
:1069D0000508F1D1A4B2002C9AD0384E4FF001082E
:1069E00094FAA4F5B5FA85F506EBC51008FA05F595
:1069F000FFF7B2FEAC43F3D18AE7344A1370B7E72E
:106A0000802B7FF478AF344802210580FFF7C0FE69
:106A100075E7B3F5A06F00F00B81A3F5D063012BF0
:106A20003FF669AF2D4B5D68002D3FF464AF1FFA50
:106A30008CFC4FEA124E04E01D690C33002D3FF42C
:106A40005AAF1A887245F7D15A886245F4D14FEA95
:106A50001E22032A00F0A5811A89000C824228BF59
:106A60000246BEF5007F40F0A181184B1C49187802
:106A70001C4B0192002818BF19461B48FFF7F2F97A
:106A8000194D019AE1E142F221218B427CD033D9A8
:106A900042F221318B4200F081804FF6C0018B42DF
:106AA0007FF429AF10F47F4F83B27FF424AF43F417
:106AB0006E4363F30F0CB5E700002E40000000208A
:106AC000DC190020E41A0020E81A0020FF1A002038
:106AD000001B0020D8190020801A00207C0A00200A
:106AE000BC1E0060201F006000002020D019002084
:106AF0005DCFC6B8C0012E40B3F5106F66D042F22C
:106B000021018B427FF4F7AE030C072B7FF4F3AE29
:106B1000B24BB349F560D960B249B360C3F808908D
:106B2000C1E9002001221A60AF4A5A60AF4A1A61D7
:106B3000D4F8B01141F00101C4F8B01102F5805150
:106B400002F5005259619A61D4F8B031002BFBD1A3
:106B5000A74AF36493600123B264136048F2800390
:106B600053604FF00113C4F8BC31D4F8B03143F492
:106B70008033C4F8B0314FF48033CAF80030D4F811
:106B8000B031002BFBD1BAE680B238B9994BC2F3D1
:106B900007421968984B1960984B1A70944B002261
:106BA0009A60F2640122B3641A6080225A604FF046
:106BB0000113C4F8BC31D4F8B03143F48033C4F8C5
:106BC000B031D4F8B031002BFBD198E6C2F30742C4
:106BD0008B4B1A708B4BC4F8C8318B4BC4F8CC313B
:106BE0008A4BC4F8D03100F0D5FB80222946884872
:106BF00000F0E4FE874B8022C6F8A0B0C6F8E03073
:106C00007B4BF5645A600122B3649D601A604FF0BB
:106C10000113C4F8BC31D4F8B03143F48033C4F864
:106C2000B031CAF80050D4F8B031002BFBD166E681
:106C30006F4B0121F564196080219D60B364596038
